:040000000C9451000B
:0C0038000C9436040C94F7030C94BD00EB
:080048000C94BA040C94D504D9
:14008C0000000000000000003F065B4F666D7D077F6F00002C
:1400A0000000CFEFD0E1CDBFDEBFCE51D0400AEA08830024E2
:1400B400E6E1F1E012E0EE3BF10711F00192FBCF0083ECE8D8
:1400C800F0E0A0E0B1E010E000E00BBFE23AF10721F0C89527
:1400DC0031960D92F9CF25D3FFCF809162008E7F0E94B6063E
:1400F0008E7F8093610008952BD321D3F4DFA7C387B1806C8B
:1401040087B987B1807E87B93D9880E888B9379A369A359845
:140118003398349BFECF349A24B1332705B11127C9019070B7
:14012C00102F00270070080F191F089557D5580124971501A7
:140140004424552440E05AE060E070E05A924A923A922A9290
:140154008A019B010FD540E054E060E070E00E948906AED4F5
:14016800088319832A833B83A880B980850124963CC50E94AD
:14017C002F064A935A9385E082BF809100018F5F80930001B6
:14019000843009F083C0222420920001809102018F5F80935D
:1401A4000201893161F420920201A8DF1093040100930301BA
:1401B800BFDF1093060100930501409101015527842F8F5F62
:1401CC00809301014030450779F04130E0E05E0719F14230D3
:1401E000E0E05E0709F431C04330E0E05E0709F43FC051C053
:1401F4008091650081608093650028EE33E00E946C063ED4D9
:1402080088E091E0F801E80FF91F8081806882BB8091650065
:14021C008F7E809365003CC08091650080618093650024E674
:1402300030E00E946C0626D42AE030E021D40E944B06877F94
:140244008093650029C0809165008860809365002AE030E055
:140258000E946C0613D42AE030E00ED40E944B068D7F809389
:14026C00650016C0809165008260809365002AE030E00E94B7
:140280006C06FED30E944B068E7F80936500222420920101B5
:1402940003C02224209201015991499109900FBEF991E9916B
:1402A8000E9467063991299119910991999089907990699027
:1402BC000E947D06199009901895F89417DF33D27894FFCFB9
:1402D00008958AD4402FEF976197842F807EA82EA694A69437
:1402E400A694A694A6946A2D77276030670721F16130E0E0C2
:1402F8007E0709F466C06230E0E07E0709F461C06330E0E002
:14030C007E0709F45CC06430E0E07E0709F430C06530E0E024
:140320007E0709F452C06630E0E07E0709F44DC06730E0E0F9
:140334007E0709F448C047C0642F77276F7170706030670735
:1403480079F06130E0E07E0769F06230E0E07E0709F437C03E
:14035C006330E0E07E0709F432C031C000002FC00AE111E00A
:14037000E091B801F091B90143D427C044FF0EC0642F7727D4
:140384006F70707060306707F1F06130E0E07E07D1F000C070
:14039800000017C055274F7050704030450789F04130E0E019
:1403AC005E0769F04230E0E05E0749F04030E0E05E072CF0FE
:1403C0004F30E0E05E0709F000C0EF96619611C411C00AE1BF
:1403D40011E0E091B201F091B30110D4002341F40AE111E0B3
:1403E800E091B601F091B70107D46FDFEECF08954A935A9353
:1403FC00F801E956FF4F2080E759F040EA56FF4F30803214D3
:1404100019F441E050E002C044275527042F5991499108953D
:14042400D9D30E94CA06853919F461E070E002C0662777275D
:14043800F801EA56FF4F2080222019F441E050E002C04427BC
:14044C0055271B0124223522222011F4332011F0002723C0C2
:140460000E9476068150E956FF4F2080281611F4002719C029
:14047400F801E9560E94A10620830E94CA06E759F0408539B0
:1404880040F4CF0189569F4FFC0180818F5F808305C0222495
:14049C00F801E956FF4F208201E09BC3AA92F801EA560E94CE
:1404B000A106A0800E947606853940F4CF018A569F4FFC01C6
:1404C40080818F5F808302C00E949B060A2DA99008950E947E
:1404D8009B06E659F040E956FF4F208208954A935A93402FFB
:1404EC0055274130E0E05E0709F14230E0E05E0709F14330EC
:14050000E0E05E0709F14430E0E05E0709F14530E0E05E079B
:1405140009F14630E0E05E0709F14730E0E05E0709F1483036
:14052800E0E05E0709F14930E0E05E0709F123C0209009016B
:14053C0022BA1FC020900A0122BA1BC020900B0122BA17C00F
:1405500020900C0122BA13C020900D0122BA0FC020900E0103
:1405640022BA0BC020900F0122BA07C02090100122BA03C019
:140578002090110122BA5991499108958FED83B90AE010E0DE
:14058C00ECD081B18F718F3101F104E110E0E5D081B18F71FF
:1405A0008F31C9F00C9906C087E0809307010C9BFECF0DC0A0
:1405B4000B9906C084E0809307010B9BFECF05C00A9903C0AC
:1405C80081E00E947106B1D001E010E0C8D08FEB83B90AE01B
:1405DC0010E0C3D081B18F718F3101F104E110E0BCD081B111
:1405F0008F718F31C9F00C9906C088E0809307010C9BFECF1C
:140604000DC00B9906C085E0809307010B9BFECF05C00A9950
:1406180003C082E00E94710688D001E010E09FD08FE783B946
:14062C000AE010E09AD081B18F718F3101F104E110E093D05A
:1406400081B18F718F31C9F00C9906C089E0809307010C9B65
:14065400FECF0DC00B9906C086E0809307010B9BFECF05C0D5
:140668000A9903C083E00E9471065FD001E010E076D00895B9
:14067C00F89422242CBE0E9446060E94460620926D0060D083
:140690008FEF81BB82BB80EE82B98FE183B98FEF8093640015
:1406A4008AE1809365000895AA92BA92AA24BB24E3DF3DD0BE
:1406B80004C064DF0091070112DFFBCFB990A9900895D5D10E
:1406CC0085D20E9455060E94C00658F46218730884089508F4
:1406E0000E94AC060E94C00610F401E01DC00E945506621415
:1406F400730484049504A8F44FEF5FEF6FEF7FEF42195309AF
:1407080064097509460D571D681D791D0E94AC062416350647
:14071C004606570610F401E001C000275AD22496089584D17B
:140730004FCEC09A04E610E016D0C09808958FEF82BB81BB92
:140744008BE180936500809364000895B89AC0980895015011
:14075800104081E090E080179107C8F308954A935A93A80172
:14076C0003C007EE13E0F1DF1A01415050402220C1F7332075
:14078000B1F75991499108954A935A934427552703C00000E8
:140794004F5F5F4F40175107D0F359914991089581B5886103
:1407A80081BDA89581B5876081BD81B5886081BD08958FEFF0
:1407BC0080936200809361000895C4DFB4DFF7DFEBDF04C009
:1407D000A895222420926200FBCF089583B7836083BF83E84D
:1407E40082BF87B7816087BF08952A923A924A925A920E94CC
:1407F80062062FB62A9281E090E0A0E0B0E04090180150903A
:14080C0019012090160130901701280E391E4A1E5B1E3092EF
:14082000170120921601509219014092180129902FBE0E94B4
:1408340067060E947D0618958091620084600E94B6068460D8
:14084800809361000895F8948CB78F778CBF0E9446060E94DB
:14085C004606EEDFBDCF0E94A70683E08EBD08950E942F0672
:140870000E94A7065EDF09900FBEF991E9910E9467063991A5
:1408840029911991099199908990799069900E947D06199050
:140898000990189587B7846087BF0895F894D3DF44DF85B764
:1408AC00806285BF78948895089522242AB82BB886E08093C8
:1408C000950080919500877F8093950088E089B9209290004F
:1408D40088E98AB908958EEB91E0E091BA01FF27E80FF91F74
:1408E80000838091BA018F3720F48F5F8093BA0103C022240E
:1408FC002092BA01559A0027112708950E949506E9F38EE306
:1409100092E0E32D0E94C5061127832D8F3720F48F5F809321
:14092400BD0103C022242092BD0108954A935A93A80105C0B3
:14093800FA010081CEDF4F5F5F4FFA0120802220B9F70DE0AC
:14094C00C6DF0AE0C4DF599149910895F89422242CBE209296
:140960006D0025BE20926A002ABE29BE27BE20927D00089597
:140974002A920E948E068EE392E0E091BC01FF27E80FF91F37
:140988002CB020828091BC018F3720F48F5F8093BC0103C0B4
:14099C0022242092BC010E948206299018952A923A920E94D8
:1409B0008E068EEB91E0E091BB01FF27E80FF91F20802CB8CF
:1409C4008091BB018F3720F48F5F8093BB0103C02224209200
:1409D800BB012090BA013090BB01321409F455980E9482060E
:1409EC003990299018954A934427549813C041E08EE392E0BD
:140A0000E091BD010E94C50668DF8091BD018F3720F48F5F68
:140A14008093BD0103C022242092BD010E94950651F741308E
:140A280021F40DE056DF0AE054DF549A499108952224209209
:140A3C00BB012092BA012092BD012092BC0186DF34DF78941A
:140A500004E743DF04C008EE13E085DECADFFBCF08955D9B6D
:140A6400FECF0CB90027112708955F9BFECF0CB108953A9302
:140A78002A931A930A930895689401C0E894EA92FA928A9368
:140A8C00EE24FF2480E1000F111FEE1CFF1CE216F30618F063
:140AA000E21AF30A03958A95A1F716F40E2D1F2D8991F990C6
:140AB400E9900895E89401C068942FD0CC2408C0E89401C0EB
:140AC800689429D037FDA1D0B7FD49D0772488249924AA24E1
:140ADC00BB2439D0C1F03CD0B1F0E8E2000F111F221F331F24
:140AF000771C881C991CAA1CBB1C88169906AA06BB0628F0A3
:140B0400881A990AAA0ABB0A0395EA9559F726F4082D192D23
:140B18002A2D3B2D0FC07A920E94BB06CA92EA930E946206E9
:140B2C008B859C85AD85BE85C32E0EF0CB260895C7FC69D096
:140B40000E946706E991C9900E94B106799024960895E02FF7
:140B5400E12BE22BE32B0895E82FE92BEA2BEB2B08958095C1
:140B68009095A095B0958F5F9F4FAF4FBF4F089555D07A9224
:140B7C0064D051F1772467D019F48C019D0124C00A921A92B9
:140B9000089FB02CA12C289F902C812C189FA00C911C871C1E
:140BA400099FA00C911C871C199F900C811C0A9F900C811CC6
:140BB800389F800C299F800C1A9F800C0B9F800C19900990B5
:140BCC000B2D1A2D292D382D799030C00E948906089549913A
:140BE00059916991799108950E948906BA92AA920895A990E7
:140BF400B990499159916991799108950A92D8950A923196D3
:140C0800D895F02DE9910990099400951095209530950F5F7C
:140C1C001F4F2F4F3F4F08950E94BB06EA930E9462068985B5
:140C30009A85AB85BC8508950E946706E9910E94B1062496E7
:140C44000895EE27E02BE12BE22BE32B0895EE27E82BE92BDF
:140C5800EA2BEB2B08950A921A922A923A924A925A926A922C
:140C6C007A928A929A920A931A932A933A938A939A93AA93C5
:140C8000BA93EA93FA930FB60A92089500000000000000000B
:140C9400089588E091E0F801E80FF91F208022BA80916500DC
:140CA80008952C803D804E805F808090180190901901609032
:140CBC0016017090170108958A939A93AA93BA930895B9919D
:140CD000A99199918991089500910501109106010895809306
:140CE40007010A9BFECF0895F801EA56FF4F8081E659F040EE
:140CF80008955990499039902990089529902FBEF991E991C0
:140D0C009991899108957A936A935A934A9308958A939A9337
:140D2000EA93FA932FB62A9208952090BC013090BD01321446
:140D340008952224F801EA56FF4F20820895FF4FE081FF272D
:140D4800E00FF11F08958FEC8DBD8CE28CBD08952884398479
:140D5C004A845B840895B990A9909990899008958093620063
:140D70008091610008958A929A92AA92BA920895261437047E
:140D8400480459040895FF27E80FF91F00810895F801E9568A
:060D9800FF4F8081089569
:00000001FF
