:040000000C94540008
:0C0038000C94F9040C94AC040C94CC0063
:080048000C943C0B0C945F0BBF
:040084000C941B06B7
:14008C003F065B4F666D7D077F6F000000000000000000002C
:0700A0000000000000000059
:1400A800CFEFD0E1CDBFDEBFCE51D0400AEA08830024E1E118
:1400BC00F1E013E0E933F10711F00192FBCF0083E6E9F0E0D8
:1400D000A0E0B1E010E000E00BBFE73AF10721F0C895319623
:1400E4000D92F9CF0E944804FFCF809162008E7F80936200F0
:1400F800809161008E7F8093610008950E945B040E9452046B
:14010C00F0DF0C94E40487B1806C87B987B1807E87B93D98D9
:1401200080E888B9379A369A35983398349BFECF349A24B1AA
:14013400332705B11127C9019070102F00270070080F191F80
:1401480008950E94D20C5801249715014424552440E05AE021
:14015C0060E070E05A924A923A922A928A019B010E946E0C6C
:1401700040E054E060E070E07A936A935A934A930E94FA0B1C
:14018400088319832A833B83A880B980850124960C94D90CAF
:140198000A921A922A923A924A925A926A927A928A929A926B
:1401AC000A931A932A933A938A939A93AA93BA93EA93FA938D
:1401C0000FB60A924A935A9385E082BF809100018F5F809347
:1401D4000001843009F0A6C0222420920001809102018F5F08
:1401E80080930201893161F4209202018EDF10930401009381
:1401FC000301A5DF1093060100930501409101015527842F22
:140210008F5F809301014030450779F04130E0E05E0731F1FA
:140224004230E0E05E0709F43FC04330E0E05E0709F458C086
:1402380074C08091650081608093650028EE33E000910501EF
:14024C00109106010E94DA0B8CE890E0F801E80FF91F86916C
:14026000806882BB809165008F7E809365005CC080916500D8
:1402740080618093650024E630E000910501109106010E9422
:14028800DA0B2AE030E00E94D80B8CE890E0F801E80FF91FF2
:14029C00269022BA80916500877F809365003EC08091650054
:1402B0008860809365002AE030E000910501109106010E94DF
:1402C400DA0B2AE030E00E94D80B8CE890E0F801E80FF91FB6
:1402D800269022BA809165008D7F8093650020C08091650030
:1402EC008260809365002AE030E000910501109106010E94A9
:14030000D80B8CE890E0F801E80FF91F269022BA8091650012
:140314008E7F8093650022242092010103C022242092010199
:140328005991499109900FBEF991E991B991A99199918991CB
:14033C003991299119910991999089907990699059904990DF
:1403500039902990199009901895F894D3DE0E944C047894ED
:14036400FFCF08950E94D20C402FEF976197842F807EA82E26
:14037800A694A694A694A694A6946A2D77276030670721F10A
:14038C006130E0E07E0709F467C06230E0E07E0709F462C06D
:1403A0006330E0E07E0709F45DC06430E0E07E0709F431C090
:1403B4006530E0E07E0709F453C06630E0E07E0709F44EC065
:1403C8006730E0E07E0709F449C048C0642F77276F71707046
:1403DC006030670779F06130E0E07E0769F06230E0E07E07A0
:1403F00009F438C06330E0E07E0709F433C032C0000030C05A
:1404040005E111E0E091B301F091B4010E94000D27C044FFD9
:140418000EC0642F77276F70707060306707F1F06130E0E0E2
:14042C007E07D1F000C0000017C055274F7050704030450728
:1404400089F04130E0E05E0769F04230E0E05E0749F0403000
:14045400E0E05E072CF04F30E0E05E0709F000C0EF9661967A
:140468000C94D90C13C005E111E0E091AD01F091AE010E9460
:14047C00000D002349F405E111E0E091B101F091B2010E942F
:14049000000D6ADFECCF08954A935A93F801E956FF4F2080BA
:1404A400E759F040EA56FF4F3080321419F441E050E002C030
:1404B80044275527042F5991499108950E94C80CF801E95607
:1404CC00FF4F8081853919F461E070E002C066277727F8018B
:1404E000EA56FF4F2080222019F441E050E002C04427552791
:1404F4001B0124223522222011F4332011F000272CC0F80194
:14050800EA56FF4F8081E659F0408150E956FF4F20802816A5
:14051C0011F400271EC0F801E956FF4FE081FF27E00FF11FB5
:140530002083F801E956FF4F8081E759F040853940F4CF015B
:1405440089569F4FFC0180818F5F808305C02224F801E956A4
:14055800FF4F208201E00C94CD0CAA92F801EA56FF4FE08121
:14056C00FF27E00FF11FA080F801EA56FF4F8081E659F0403F
:14058000853940F4CF018A569F4FFC0180818F5F808305C023
:140594002224F801EA56FF4F20820A2DA99008952224F80198
:1405A800EA56FF4F2082E659F040E956FF4F208208954A93F7
:1405BC005A93402F55274130E0E05E0741F14230E0E05E07F4
:1405D00049F14330E0E05E0709F429C04430E0E05E0709F4C9
:1405E40029C04530E0E05E0709F429C04630E0E05E0709F402
:1405F80029C04730E0E05E0709F429C04830E0E05E0709F4EA
:14060C0029C04930E0E05E0709F429C02CC0EDE8F0E0269026
:1406200022BA27C0EEE8F0E0269022BA22C0EFE8F0E026908C
:1406340022BA1DC0E0E9F0E0269022BA18C0E1E9F0E02690A6
:1406480022BA13C0E2E9F0E0269022BA0EC0E3E9F0E02690A2
:14065C0022BA09C0E4E9F0E0269022BA04C0E5E9F0E026909E
:1406700022BA5991499108958FED83B90AE010E00E9466049B
:1406840081B18F718F3129F104E110E00E94660481B18F7143
:140698008F31E9F00C9906C087E0809307010C9BFECF0FC085
:1406AC000B9906C084E0809307010B9BFECF07C00A9905C0AF
:1406C00081E0809307010A9BFECF0E944C0401E010E00E94D3
:1406D40066048FEB83B90AE010E00E94660481B18F718F311A
:1406E80029F104E110E00E94660481B18F718F31E9F00C9993
:1406FC0006C088E0809307010C9BFECF0FC00B9906C085E08F
:14071000809307010B9BFECF07C00A9905C082E0809307019B
:140724000A9BFECF0E944C0401E010E00E9466048FE783B9CE
:140738000AE010E00E94660481B18F718F3129F104E110E0E6
:14074C000E94660481B18F718F31E9F00C9906C089E08093DB
:1407600007010C9BFECF0FC00B9906C086E0809307010B9BA9
:14077400FECF07C00A9905C083E0809307010A9BFECF0E94E3
:140788004C0401E010E00E9466040895F89422242CBE0000D7
:14079C00000000000000000000000000000020926D000E9488
:1407B0005B048FEF81BB82BB80EE82B98FE183B98FEF8093F9
:1407C40064008AE1809365000895AA92BA92AA24BB24DEDF4B
:1407D8000E944C0404C04CDF00910701EADEFBCFB990A9907F
:1407EC0008950E94D30B0E94C80C2C803D804E805F80809040
:140800001301909014016090110170901201261437044804C5
:14081400590478F46218730884089508288439844A845B84D3
:14082800261437044804590410F401E029C02C803D804E8099
:14083C005F80809013019090140160901101709012016214E5
:14085000730484049504B8F44FEF5FEF6FEF7FEF4219530941
:1408640064097509460D571D681D791D288439844A845B849D
:14087800241635064606570610F401E001C000270E94CD0C06
:14088C00249608950E94B30B0C943602C09A04E610E016D0AF
:1408A000C09808958FEF82BB81BB8BE18093650080936400FD
:1408B4000895B89AC09808950150104081E090E080179107AB
:1408C800C8F308954A935A93A80103C007EE13E0F1DF1A01BB
:1408DC00415050402220C1F73320B1F75991499108954A93B4
:1408F0005A934427552703C000004F5F5F4F40175107D0F38F
:1409040059914991089581B5886181BDA89581B5876081BD89
:1409180081B5886081BD08958FEF80936200809361000895CE
:14092C00C4DFB4DFF7DFEBDF04C0A895222420926200FBCFBC
:140940000895A895089583B7836083BF83E882BF87B7816002
:1409540087BF08952A923A924A925A928A939A93AA93BA9388
:140968002FB62A9281E090E0A0E0B0E0409013015090140120
:14097C002090110130901201280E391E4A1E5B1E309212018F
:1409900020921101509214014092130129902FBEB991A99188
:1409A4009991899159904990399029901895809162008460B3
:1409B80080936200809161008460809361000895F8948CB780
:1409CC008F778CBF00000000000000000000000000000000C6
:1409E000E8DFB1CF8FEC8DBD8CE28CBD83E08EBD08950A9259
:1409F4001A922A923A924A925A926A927A928A929A920A9306
:140A08001A932A933A938A939A93AA93BA93EA93FA930FB600
:140A1C000A928FEC8DBD8CE28CBD0E944C0409900FBEF991CC
:140A3000E991B991A99199918991399129911991099199907F
:140A4400899079906990599049903990299019900990189550
:140A580087B7846087BF0895F894B2DF0E944C0485B7806258
:140A6C0085BF78948895089580B58B7F80BD81B38C7F81BB75
:140A800082B3836082BB8091740084608093740004E610E043
:140A940006D0009370008FEF8093730008950E94D20C5801FB
:140AA80004E210E095010E945E0C18014424552440E45FE164
:140ABC0060E070E0421553056405750514F40AE025C0150117
:140AD0004424552440E45FE160E070E05A924A923A922A92ED
:140AE4008A019B010E94FA0B40E150E060E070E0180129010C
:140AF800241A350A460A570A42E050E060E070E07A936A93D0
:140B0C005A934A93810192010E94FA0B0C94D90C00917300C6
:140B2000089500937300809174008F7080688093740008958E
:140B3400002339F0809174008F70846C8093740006C080918F
:140B480074008F7084688093740008950E94E00CA22E402F49
:140B5C00CE80DF80809174008E7F80937400A0920E019601E7
:140B70000A2D1CD0842F8E7F809310012BD002C00E94A10466
:140B840020900C012220D1F3222420920C01809174008F7011
:140B9800806D80937400809174008E7F809374000C94E70C29
:140BAC00AA92AA240DC0EA2DFF27E20FF31F208085EF91E099
:140BC000EA2DFF27E80FF91F2082A394A01688F3A9900895F5
:140BD400809174008F70846A8093740080917400816080939B
:140BE80074000895AA924A93A22E402F809174008E7F8093EB
:140BFC007400A0920E01842F816080931001E4DF20900D01F7
:140C10002220E1F3222420920D01809174008F70806D809330
:140C24007400809174008E7F809374004991A99008950A92E3
:140C38001A922A923A924A925A926A927A928A929A920A93BF
:140C4C001A932A933A938A939A93AA93BA93EA93FA930FB6BA
:140C60000A924A935A93409171005527487F50704832E0E09B
:140C74005E0709F468C088E290E0841795074CF14031E0E063
:140C88005E0709F453C080E190E0841795077CF040304507B3
:140C9C0009F4A9C04030E0E05E070CF4ABC04830E0E05E0741
:140CB00009F440C0A5C04831E0E05E0709F445C04831E0E0F5
:140CC4005E070CF49BC04032E0E05E0709F488C095C04034B7
:140CD800E0E05E0709F450C080E490E0841795077CF04033EC
:140CEC00E0E05E0709F478C04033E0E05E070CF481C0483346
:140D0000E0E05E07D9F07CC04035E0E05E0709F444C080E5B5
:140D140090E08417950734F04834E0E05E0709F45FC06CC017
:140D28004835E0E05E0709F443C066C000911001F4DE65C056
:140D3C00809174008F70846A809374005EC020900E0130900D
:140D50000F01321470F485EF91E0E32DFF27E80FF91F00812A
:140D6400DEDE80910F018F5F80930F014AC0222420920F017B
:140D780081E080930C0143C080910E01815020900F012816F4
:140D8C0018F401E0D1DE39C00027CEDE36C0C0DE85EB91E076
:140DA000E0910F01FF27E80FF91F008380910F018F5F8093E4
:140DB4000F0127C0B1DE85EB91E0E0910F01FF27E80FF91F0E
:140DC8000083222420920F0181E080930D01809174008F7086
:140DDC00806D8093740011C0809174008F70806D80937400C6
:140DF0000AC0809174008F70806D8093740003C084E08093F3
:140E040074005991499109900FBEF991E991B991A99199918A
:140E18008991399129911991099199908990799069905990B7
:140E2C004990399029901990099018950E94EE0CA901602F93
:140E4000C884AA24809174008F70846A809374002090740067
:140E540027FEFCCF80917100887F883041F0809174008F70A4
:140E6800806D80937400002736C0062F0E7F55DE20907400CC
:140E7C0027FEFCCF80917100887F883141F0809174008F707B
:140E9000806D80937400002722C0AA2417C0FA0100813FDE93
:140EA4002090740027FEFCCF80917100887F883241F08091A1
:140EB80074008F70806D8093740000270CC04F5F5F4FA394B9
:140ECC00AC1438F3809174008F70806D8093740001E00C94AE
:140EE000F70C0E94BD0CE22E602F4A855B85CC84AA24809113
:140EF40074008F70846A809374002090740027FEFCCF8091DD
:140F08007100887F883041F0809174008F70806D809374007C
:140F1C00002749C0062F0E7FFEDD2090740027FEFCCF8091CF
:140F30007100887F883141F0809174008F70806D8093740053
:140F4400002735C00E2DEBDD2090740027FEFCCF80917100E4
:140F5800887F883241F0809174008F70806D80937400002774
:140F6C0022C0AA2417C0FA010081D5DD2090740027FEFCCFA8
:140F800080917100887F883241F0809174008F70806D809365
:140F9400740000270CC04F5F5F4FA394AC1438F380917400DF
:140FA8008F70806D8093740001E00C94B20C0E94EE0C59018D
:140FBC00602F4885CC24809174008F70846A8093740020902C
:140FD000740027FEFCCF80917100887F883041F080917400B2
:140FE4008F70806D80937400002734C0062F016096DD2090B2
:140FF800740027FEFCCF80917100887F803441F0809174008E
:14100C008F70806D80937400002720C0CC240AC00C2D11272B
:141020000A0D1B1DCED0002311F4002715C0C394842F8150D0
:14103400C81690F30C2D11270A0D1B1DA5D0002311F40027C3
:1410480007C0809174008F70806D8093740001E00C94F70C51
:14105C000E94BD0CE22E602FAA84BB844C85CC2480917400C3
:141070008F70846A809374002090740027FEFCCF8091710062
:14108400887F883041F0809174008F70806D80937400002749
:1410980077C0062F0E7F41DD2090740027FEFCCF8091710097
:1410AC00887F883141F0809174008F70806D80937400002720
:1410C00063C00E2D2EDD2090740027FEFCCF80917100887F16
:1410D400883241F0809174008F70806D80937400002750C0EE
:1410E800809174008F70846A809374002090740027FEFCCFE7
:1410FC0080917100887F883069F080917100887F803141F0DB
:14111000809174008F70806D80937400002734C0062F016022
:14112400FEDC2090740027FEFCCF80917100887F803441F05B
:14113800809174008F70806D80937400002720C0CC240AC0EA
:14114C000C2D11270A0D1B1D36D0002311F4002715C0C3944E
:14116000842F8150C81690F30C2D11270A0D1B1D0DD00023D6
:1411740011F4002707C0809174008F70806D8093740001E09B
:141188000C94B20CAA92BA925801809174008F708468809391
:14119C0074002090740027FEFCCF80917100887F883511F070
:1411B000002704C0B3DCF501008301E0B990A9900895AA92FC
:1411C400BA925801809174008F70846C809374002090740053
:1411D80027FEFCCF80917100887F803511F0002704C098DC75
:1411EC00F501008301E0B990A9900895899A889A919A05E021
:1412000010E00E945E04909A05E010E00C945E04899A889AA0
:14121400909805E010E00E945E04919A05E010E00E945E04C1
:14122800909A05E010E00E945E04919805E010E00E945E04AD
:14123C00909805E010E00C945E04899A889A909805E010E05D
:141250000E945E04919805E010E00E945E04909A05E010E085
:141264000E945E04919A05E010E00C945E044A936A9344272B
:14127800889A909805E010E00E945E048998909A05E010E01F
:14128C000E945E046FEF0EC083B3827083BB882341F041E0BB
:1412A000909805E010E00E945E04042F0BC06A9580E086173F
:1412B40078F3909805E010E00E945E04442700276991499154
:1412C8000895AA924A93A02E899A889A442719C0909805E0F8
:1412DC0010E00E945E04A7FE06C0919A05E010E00E945E049B
:1412F00005C0919805E010E00E945E04AA0C909A05E010E06E
:141304000E945E044395483028F34991A9900895AA92A02EAC
:14131800899A889A909805E010E00E945E04AA2031F0919A65
:14132C0005E010E00E945E0405C0919805E010E00E945E040D
:14134000909A05E010E00E945E04909805E010E00E945E0495
:14135400A99008950E94EE0CA901602FC884AA2455DF062F57
:141368000E7FAFDF82DF002319F069DF002712C0AA240CC0EE
:14137C00FA010081A4DF77DF002319F05EDF002707C04F5F03
:141390005F4FA394AC1490F356DF01E00C94F70C0E94BD0CFD
:1413A400E22E602F4A855B85CC84AA242FDF062F8ADF5DDFE1
:1413B800002319F044DF00271BC00E2D82DF55DF002319F0D4
:1413CC003CDF002713C0AA240DC0FA01008177DF4ADFE02E54
:1413E000002319F030DF002707C04F5F5F4FA394AC1488F302
:1413F40028DF01E00C94B20CAA924A93AA24889A899844270A
:1414080018C0909805E010E00E945E04919A05E010E00E9455
:14141C005E04909A05E010E00E945E04AA0C83B3827083BB3B
:14143000882311F0A39400C04395483030F30A2D4991A99048
:1414440008950E94BD0CA901E02E6A85AA24CC24C394DCDE16
:141458000E2D016036DF09DF002319F0F0DE002716C0AA2422
:14146C0010C0C6DFFA010083862F8150A81619F4CC24C394E1
:1414800003C04F5F5F4FCC240C2D44DFA394A61670F3D9DEE0
:1414940001E00C94B20C0E94D30B0E94BD0CE22E4E855F8553
:1414A8006889AA24CC24C394AFDE0A850E7F09DFDCDE0023BC
:1414BC0019F0C3DE00272AC00E2D01DFD4DE002319F0BBDECF
:1414D000002722C09DDE0A850160F7DECADEE02E002319F0DD
:1414E400B0DE002717C0AA2411C086DFE02EFA01E082862F44
:1414F8008150A81619F4CC24C39403C04F5F5F4FCC240C2DB5
:14150C0003DFA394A61668F398DE01E00E94B20C249608958D
:1415200000C000C069DE08950E94C10C6901A02E2297E88487
:1415340000C000C0E88296010A2D0CDF22960C94A20C0E9458
:14154800BF0CC22EA02E2397EB84FC844D8500C000C04A833E
:14155C00F982E8822C2D0A2D1DDF23960C94A90C0E94C10C8D
:141570006901A02E2197EF8000C000C0E88296010A2D61DF10
:1415840021960C94A20C0E94BF0CC22EA02E2397EB84FC847A
:141598004D8500C000C04A83F982E8822C2D0A2D78DF23969B
:1415AC000C94A90C22242AB82BB886E0809395008091950017
:1415C000877F8093950088E089B92092900088E98AB908952C
:1415D40089E392E0E0913502FF27E80FF91F0083809135027D
:1415E8008F3720F48F5F8093350203C0222420923502559AFC
:1415FC0000271127089520903702309038023214D1F389EB7E
:1416100092E0E32DFF27E80FF91F00811127832D8F3720F4CC
:141624008F5F8093380203C022242092380208954A935A931B
:14163800A80105C0FA010081C9DF4F5F5F4FFA0120802220D3
:14164C00B9F70DE0C1DF0AE0BFDF599149910895F894222492
:141660002CBE20926D0025BE20926A002ABE29BE27BE209208
:141674007D0008952A928A939A93EA93FA932FB62A9289EB23
:1416880092E0E0913702FF27E80FF91F2CB020828091370235
:14169C008F3720F48F5F8093370203C0222420923702299079
:1416B0002FBEF991E99199918991299018952A923A928A93E6
:1416C4009A93EA93FA932FB62A9289E392E0E0913602FF278D
:1416D800E80FF91F20802CB8809136028F3720F48F5F809347
:1416EC00360203C0222420923602209035023090360232149A
:1417000009F4559829902FBEF991E99199918991399029907B
:1417140018954A934427549815C041E089EB92E0E091380259
:14172800FF27E80FF91F008151DF809138028F3720F48F5FB4
:14173C008093380203C0222420923802209037023090380274
:14175000321429F7413021F40DE03CDF0AE03ADF549A4991C6
:141764000895222420923602209235022092380220923702E4
:1417780071DF1ADF789404E729DF05C008EE13E00E9466045B
:14178C00C4DFFACF08955D9BFECF0CB90027112708955F9BC0
:1417A000FECF0CB108953A932A931A930A930895689401C0E0
:1417B400E894EA92FA928A93EE24FF2480E1000F111FEE1CA1
:1417C800FF1CE216F30618F0E21AF30A03958A95A1F716F4A7
:1417DC000E2D1F2D8991F990E9900895E89401C0689430D080
:1417F000CC2409C0E89401C068942AD037FD0E94090DB7FD59
:1418040052D0772488249924AA24BB2442D0C1F045D0B1F084
:14181800E8E2000F111F221F331F771C881C991CAA1CBB1C97
:14182C0088169906AA06BB0628F0881A990AAA0ABB0A03958C
:14184000EA9559F726F4082D192D2A2D3B2D13C07A928A9276
:141854009A92AA92BA92CA92EA938A939A93AA93BA938B850F
:141868009C85AD85BE85C32E0EF0CB260895C7FC0E94090DDE
:14187C00B991A99199918991E991C990B990A99099908990F9
:14189000799024960895E02FE12BE22BE32B0895E82FE92BE6
:1418A400EA2BEB2B089580959095A095B0958F5F9F4FAF4FDA
:1418B800BF4F08950A921A928A939A93029FC001129F900D2F
:1418CC00039F900D8C01999189911990099008950E94120D58
:1418E0007A920E942B0D59F177240E94310D19F48C019D0111
:1418F40024C00A921A92089FB02CA12C289F902C812C189F7D
:14190800A00C911C871C099FA00C911C871C199F900C811C3A
:14191C000A9F900C811C389F800C299F800C1A9F800C0B9F2F
:14193000800C199009900B2D1A2D292D382D79900C94200DC5
:14194400A990B990C990D990E990F9900895A990B990C990D1
:14195800D990E990F990499159910895A990B990C990D9906B
:14196C00E990F990499159916991799108957A936A935A9309
:141980004A93FA92EA92DA92CA92BA92AA9208957A936A9377
:141994005A934A930895499159916991799108957A936A9369
:1419A8005A934A93BA92AA920895A990B990499159916991FC
:1419BC00799108955A934A93DA92CA92BA92AA920895A99080
:1419D000B990C990D9904991599108957A936A935A934A93C3
:1419E400DA92CA92BA92AA920895A990B990C990D9904991E4
:1419F80059916991799108950A92D8950A923196D895F02D5A
:141A0C00E9910990099400951095209530950F5F1F4F2F4F08
:141A20003F4F08958A929A92AA92BA92EA938A939A93AA93B3
:141A3400BA9389859A85AB85BC850895B991A991999189914E
:141A4800E991B990A9909990899024960895EE27E02BE12BC9
:121A5C00E22BE32B0895EE27E82BE92BEA2BEB2B0895BC
:00000001FF
