:040000000C94540008
:0C0038000C9441040C9402040C94BE00D3
:080048000C94C5040C94E004C3
:040084000C94FD05D6
:14008C0000000000000000003F065B4F666D7D077F6F00002C
:0700A0000000000000000059
:1400A800CFEFD0E1CDBFDEBFCE51D0400AEA08830024EBE10E
:1400BC00F1E013E0E334F10711F00192FBCF0083ECE8F0E0D8
:1400D000A0E0B1E010E000E00BBFE73AF10721F0C895319623
:1400E4000D92F9CF2BD3FFCF809162008E7F0E948A0B8E7F11
:1400F80080936100089531D327D3F4DFAFC387B1806C87B93C
:14010C0087B1807E87B93D9880E888B9379A369A35983398B2
:14012000349BFECF349A24B1332705B11127C9019070102F3B
:1401340000270070080F191F08950E942D0A58012497150131
:140148004424552440E05AE00E940F0B0E94D90940E054E0D4
:14015C0060E070E00E94D70A0E946F09088319832A833B83D0
:14017000A880B980850124960C94320A0E94910A4A935A93F7
:1401840085E082BF809100018F5F80930001843009F082C0BE
:14019800222420920001809102018F5F80930201893161F433
:1401AC0020920201AADF1093040100930301C1DF1093060178
:1401C00000930501409101015527842F8F5F8093010140301D
:1401D400450779F04130E0E05E0731F14230E0E05E0709F416
:1401E8002DC04330E0E05E0709F434C050C080916500816026
:1401FC008093650028EE33E000910501109106010E944F0915
:1402100088E091E0F801E80FF91F8081806882BB809165005D
:140224008F7E8093650038C08091650080618093650024E670
:140238000E94AF0A877F809365002CC080916500886080937C
:14024C0065002AE00E94AF0A8D7F8093650020C080916500FA
:140260008260809365002AE030E000910501109106010E9435
:140274004D0988E091E0F801E80FF91F208022BA809165004D
:140288008E7F8093650022242092010103C022242092010126
:14029C005991499109900FBEF991E9910E94E10A399129910F
:1402B0001991099199908990799069900E94180B19900990AB
:1402C4001895F8941ADF3CD27894FFCF08950E942D0A402F27
:1402D800EF976197842F807EA82EA694A694A694A694A694EB
:1402EC006A2D77276030670721F16130E0E07E0709F467C0BF
:140300006230E0E07E0709F462C06330E0E07E0709F45DC001
:140314006430E0E07E0709F431C06530E0E07E0709F453C024
:140328006630E0E07E0709F44EC06730E0E07E0709F449C0F9
:14033C0048C0642F77276F7170706030670779F06130E0E0FC
:140350007E0769F06230E0E07E0709F438C06330E0E07E0717
:1403640009F433C032C0000030C00FE111E0E091BD01F09122
:14037800BE010E94530A27C044FF0EC0642F77276F707070CB
:14038C0060306707F1F06130E0E07E07D1F000C0000017C050
:1403A00055274F7050704030450789F04130E0E05E0769F02A
:1403B4004230E0E05E0749F04030E0E05E072CF04F30E0E075
:1403C8005E0709F000C0EF9661960C94320A13C00FE111E0F7
:1403DC00E091B701F091B8010E94530A002349F40FE111E06A
:1403F000E091BB01F091BC010E94530A6ADFECCF08954A9311
:140404005A93F801E956FF4F2080E759F040EA56FF4F308023
:14041800321419F441E050E002C044275527042F599149918C
:14042C0008950E94250A0E949E0B853919F461E070E002C0E5
:1404400066277727F801EA56FF4F2080222019F441E050E0B6
:1404540002C0442755271B0124223522222011F4332011F097
:14046800002723C00E942B0B8150E956FF4F2080281611F45D
:14047C00002719C0F801E9560E945E0B20830E949E0BE759FB
:14049000F040853940F4CF0189569F4FFC0180818F5F8083AA
:1404A40005C02224F801E956FF4F208201E00C94280AAA9222
:1404B800F801EA560E945E0BA0800E942B0B853940F4CF0132
:1404CC008A569F4FFC0180818F5F808302C00E94640B0A2D55
:1404E000A99008950E94640BE659F040E956FF4F20820895E6
:1404F4004A935A93402F55274130E0E05E0709F14230E0E07D
:140508005E0709F14330E0E05E0709F14430E0E05E0709F15B
:14051C004530E0E05E0709F14630E0E05E0709F14730E0E06B
:140530005E0709F14830E0E05E0709F14930E0E05E0709F129
:1405440023C02090090122BA1FC020900A0122BA1BC0209029
:140558000B0122BA17C020900C0122BA13C020900D0122BACA
:14056C000FC020900E0122BA0BC020900F0122BA07C0209033
:14058000100122BA03C02090110122BA5991499108958FED3C
:1405940083B90AE010E0EED081B18F718F3101F104E110E0C6
:1405A800E7D081B18F718F31C9F00C9906C087E080930701F0
:1405BC000C9BFECF0DC00B9906C084E0809307010B9BFECF8E
:1405D00005C00A9903C081E00E94450BB3D001E010E0CAD0AB
:1405E4008FEB83B90AE010E0C5D081B18F718F3101F104E115
:1405F80010E0BED081B18F718F31C9F00C9906C088E08093E0
:14060C0007010C9BFECF0DC00B9906C085E0809307010B9B01
:14062000FECF05C00A9903C082E00E94450B8AD001E010E04F
:14063400A1D08FE783B90AE010E09CD081B18F718F3101F165
:1406480004E110E095D081B18F718F31C9F00C9906C089E0E5
:14065C00809307010C9BFECF0DC00B9906C086E08093070143
:140670000B9BFECF05C00A9903C083E00E94450B61D001E071
:1406840010E078D00895F89422242CBE0E94C40A0E94C40AF1
:1406980020926D0062D08FEF81BB82BB80EE82B98FE183B9B1
:1406AC008FEF809364008AE1809365000895AA92BA92AA246F
:1406C000BB24E3DF3FD004C064DF0091070112DFFBCFB990D2
:1406D400A9900895DBD50E94250A0E94E60A0E94760B58F4BA
:1406E80062187308840895080E94800B0E94760B10F401E0AB
:1406FC001DC00E94E60A6214730484049504A8F44FEF5FEF45
:140710006FEF7FEF4219530964097509460D571D681D791D85
:140724000E94800B241635064606570610F401E001C00027A9
:140738000E94280A2496089586D149CEC09A04E610E016D0FA
:14074C00C09808958FEF82BB81BB8BE1809365008093640052
:140760000895B89AC09808950150104081E090E08017910700
:14077400C8F308954A935A93A80103C007EE13E0F1DF1A0110
:14078800415050402220C1F73320B1F75991499108954A9309
:14079C005A934427552703C000004F5F5F4F40175107D0F3E4
:1407B00059914991089581B5886181BDA89581B5876081BDDF
:1407C40081B5886081BD08958FEF8093620080936100089524
:1407D800C4DFB4DFF7DFEBDF04C0A895222420926200FBCF12
:1407EC000895A895089583B7836083BF83E882BF87B7816058
:1408000087BF08952A923A924A925A920E94DC0A2FB62A9288
:1408140081E090E0A0E0B0E040901D0150901E0120901B0136
:1408280030901C01280E391E4A1E5B1E30921C0120921B01C4
:14083C0050921E0140921D0129902FBE0E94E10A0E94180BBF
:1408500018958091620084600E948A0B846080936100089564
:14086400F8948CB78F778CBF0E94C40A0E94C40AEEDFBDCF27
:140878000E948F0B83E08EBD08950E94910A0E948F0B5CDF31
:14088C0009900FBEF991E9910E94E10A399129911991099199
:1408A00099908990799069900E94180B19900990189587B70E
:1408B400846087BF0895F894D3DF42DF85B7806285BF78949C
:1408C8008895089522242AB82BB886E08093950080919500A3
:1408DC00877F8093950088E089B92092900088E98AB908951D
:1408F00083EC91E0E091BF01FF27E80FF91F00838091BF015A
:140904008F3720F48F5F8093BF0103C022242092BF01559ADA
:140918000027112708950E94580BE9F383E492E0E32D0E9463
:14092C00400B1127832D8F3720F48F5F8093C20103C02224DD
:140940002092C20108954A935A93A80105C0FA010081CEDF30
:140954004F5F5F4FFA0120802220B9F70DE0C6DF0AE0C4DF87
:14096800599149910895F89422242CBE20926D0025BE2092AA
:14097C006A002ABE29BE27BE20927D0008952A920E94510BC3
:1409900083E492E0E091C101FF27E80FF91F2CB02082809183
:1409A400C1018F3720F48F5F8093C10103C022242092C10163
:1409B8000E94390B299018952A923A920E94510B83EC91E079
:1409CC00E091C001FF27E80FF91F20802CB88091C0018F3794
:1409E00020F48F5F8093C00103C022242092C0012090BF0141
:1409F4003090C001321409F455980E94390B39902990189529
:140A08004A934427549813C041E083E492E0E091C2010E9403
:140A1C00400B68DF8091C2018F3720F48F5F8093C20103C0FF
:140A300022242092C2010E94580B51F7413021F40DE056DF02
:140A44000AE054DF549A4991089522242092C0012092BF01F1
:140A58002092C2012092C10186DF34DF789404E743DF04C04C
:140A6C0008EE13E083DECADFFBCF08955D9BFECF0CB900276B
:140A8000112708955F9BFECF0CB1089580B58B7F80BD81B3BC
:140A94008C7F81BB82B3836082BB84E08093740004E610E0ED
:140AA80006D0009370008FEF809373000895D1D4580104E2DC
:140ABC0010E0950168D418014424552440E45FE160E070E076
:140AD000421553056405750514F40AE01BC0150144245524BC
:140AE40040E45FE10E940F0BF8D340E150E060E070E0180119
:140AF8002901241A350A460A570A42E050E060E070E00E940E
:140B0C00D70A81019201E5D3A7C40091730008950093730015
:140B2000809174008F708068809374000895002339F08091D4
:140B340074008F70846C8093740006C0809174008F7084688D
:140B480080937400089591D4A22E402FCE80DF800E94040B73
:140B5C00A092180196010A2D13D0842F8E7F80931A0122D0A9
:140B700001C03DDE209016012220D9F32224209216010E940F
:140B8400820A0E94040B7AC4AA92AA240DC0EA2DFF27E20FDD
:140B9800F31F208083E093E0EA2DFF27E80FF91F2082A3949C
:140BAC00A01688F3A99008950E94A80A809174008160809361
:140BC00074000895AA924A93A22E402F0E94040BA0921801BC
:140BD400842F816080931A01EBDF209017012220E1F322245D
:140BE800209217010E94820A0E94040B4991A99008950E94FE
:140BFC00910A4A935A93409171005527487F50704832E0E001
:140C10005E0709F464C088E290E0841795074CF14031E0E0CB
:140C24005E0709F453C080E190E0841795077CF04030450717
:140C380009F489C04030E0E05E070CF487C04830E0E05E07E9
:140C4C0009F440C081C04831E0E05E0709F441C04831E0E081
:140C60005E070CF477C04032E0E05E0709F46CC071C040347F
:140C7400E0E05E0709F447C080E490E0841795077CF0403359
:140C8800E0E05E0709F45CC04033E0E05E070CF45DC04833EA
:140C9C00E0E05E07D9F058C04035E0E05E0709F43BC080E547
:140CB00090E08417950734F04834E0E05E0709F443C048C0BC
:140CC4004835E0E05E0709F431C042C000911A0123DF41C0DB
:140CD8000E94A80A3EC02090180130901901321448F483E02E
:140CEC0093E0E32D0E94400B13DF0E94700B2FC0222420928E
:140D0000190181E08093160128C0809118018150209019018D
:140D1400281618F401E009DF1EC0002706DF1BC0F8DE0E947B
:140D28001D0B0E94700B15C0F2DE0E941D0B222420921901F1
:140D3C0081E0809317010E94820A09C00E94820A06C00E948A
:140D5000820A03C084E0809374005991499109900FBEF991A1
:140D6400E9910E94E10A399129911991099199908990799061
:140D780069900E94180B19900990189582D30E94A30B0E9473
:140D8C00A80A0E94890A883021F00E94820A002720C0062F39
:140DA0000E7FBCDE0E94890A883121F00E94820A002715C0EF
:140DB400AA240EC0FA010081AFDE0E94890A883221F00E94E4
:140DC800820A002708C04F5F5F4FA394AC1480F30E94820AA8
:140DDC0001E05CC329D30E944A0B0E94A80A0E94890A8830CF
:140DF00021F00E94820A00272AC0062F0E7F8EDE0E94890A3C
:140E0400883121F00E94820A00271FC00E2D84DE0E94890A0A
:140E1800883221F00E94820A002715C0AA240EC0FA010081B9
:140E2C0077DE0E94890A883221F00E94820A002708C04F5F92
:140E40005F4FA394AC1480F30E94820A01E0EBC21CD3590181
:140E5400602F4885CC240E94A80A0E94890A883021F00E944A
:140E6800820A002723C0062F016054DE0E94890A803421F01E
:140E7C000E94820A002718C0CC2408C00E94260B7FD0002338
:140E900011F400270FC0C394842F8150C816A0F30E94260B34
:140EA40061D0002311F4002703C00E94820A01E0F1C2BED2A5
:140EB800E22E602FAA84BB844C85CC240E94A80A0E94890AD0
:140ECC00883021F00E94820A002747C0062F0E7F1FDE0E948C
:140EE000890A883121F00E94820A00273CC00E2D15DE0E9480
:140EF400890A883221F00E94820A002732C00E94A80A0E944F
:140F0800890A883049F080917100887F803121F00E94820AD8
:140F1C00002723C0062F0160FBDD0E94890A803421F00E94AD
:140F3000820A002718C0CC2408C00E94260B26D0002311F479
:140F440000270FC0C394842F8150C816A0F30E94260B08D0AC
:140F5800002311F4002703C00E94820A01E05FC20E94320B64
:140F6C008468809374000E94890A883511F0002704C0CBDD78
:140F8000F501008301E0B990A99008950E94320B846C809302
:140F940074000E94890A803511F0002704C0B9DDF5010083F0
:140FA80001E0B990A9900895899A889A919A05E010E0D6DB3F
:140FBC00909A05E010E0D2CB899A0E940A0BCEDB919A05E0F2
:140FD00010E0CADB909A05E010E0C6DB919805E010E0C2DB3D
:140FE400909805E010E0BECB899A0E940A0BBADB919805E0F6
:140FF80010E0B6DB909A05E010E0B2DB919A05E010E0AECB5F
:14100C004A936A9344270E940A0BA8DB8998909A05E010E031
:14102000A3DB6FEF0BC00E94990B39F041E0909805E010E088
:1410340099DB042F0AC06A9580E0861790F3909805E010E0BB
:141048008FDB44270027699149910895AA924A93A02E899A1D
:14105C00889A442715C0909805E010E07FDBA7FE05C0919A32
:1410700005E010E079DB04C0919805E010E074DBAA0C909A52
:1410840005E010E06FDB4395483048F34991A9900895AA92C2
:14109800A02E899A0E940A0B63DBAA2029F0919A05E010E07B
:1410AC005DDB04C0919805E010E058DB909A05E010E054DBD5
:1410C000909805E010E050DBA9900895DED10E94A30B78DFC8
:1410D400062F0E7FBDDF98DF002319F085DF002712C0AA24DC
:1410E8000CC0FA010081B2DF8DDF002319F07ADF002707C03C
:1410FC004F5F5F4FA394AC1490F372DF01E0C6C193D10E944B
:141110004A0B58DF062F9EDF79DF002319F066DF00271BC0C2
:141124000E2D96DF71DF002319F05EDF002713C0AA240DC0B9
:14113800FA0100818BDF66DFE02E002319F052DF002707C01F
:14114C004F5F5F4FA394AC1488F34ADF01E065C1AA924A9378
:14116000AA24889A8998442713C0909805E010E0FBDA919A2F
:1411740005E010E0F7DA909A05E010E0F3DAAA0C0E94990BF9
:1411880011F0A39400C04395483058F30A2D4991A9900895D9
:14119C004BD1A901E02E6A85AA24CC24C3940CDF0E2D0160E0
:1411B00051DF2CDF002319F019DF00270DC0AA2407C0CCDF98
:1411C400FA0100830E94F30A64DFA394A616B8F30BDF01E04E
:1411D80026C15AD02BD1E22E4E855F856889AA24CC24C39429
:1411EC00EBDE0A850E7F30DF0BDF002319F0F8DE002721C007
:141200000E2D28DF03DF002319F0F0DE002719C0D9DE0A8576
:1412140001601EDFF9DEE02E002319F0E5DE00270EC0AA24D1
:1412280008C098DFE02EFA01E0820E94F30A2FDFA394A61668
:14123C00B0F3D6DE01E0F1D02496089500C000C0B1DE0895A2
:14125000F5D06901A02E2297E8840E946A0B36DF2296D7C0ED
:14126400E9D00E94C90A50DF2396D6C0E5D06901A02E219725
:14127800EF800E946A0B8EDF2196C7C0D9D00E94C90AA7DF8D
:14128C002396C6C03A932A931A930A930895689401C0E89465
:1412A000EA92FA928A93EE24FF2480E1000F111FEE1CFF1C1B
:1412B400E216F30618F0E21AF30A03958A95A1F716F40E2DA0
:1412C8001F2D8991F990E9900895E89401C068942FD0CC24E5
:1412DC0008C0E89401C0689429D037FDE7D0B7FD49D07724B1
:1412F00088249924AA24BB2439D0C1F03CD0B1F0E8E2000F94
:14130400111F221F331F771C881C991CAA1CBB1C881699064C
:14131800AA06BB0628F0881A990AAA0ABB0A0395EA9559F713
:14132C0026F4082D192D2A2D3B2D0FC07A920E94940BCA92E1
:14134000EA930E94DC0A8B859C85AD85BE85C32E0EF0CB260E
:141354000895C7FCAFD00E94E10AE991C9900E94850B79900B
:1413680024960895E02FE12BE22BE32B0895E82FE92BEA2B07
:14137C00EB2B089580959095A095B0958F5F9F4FAF4FBF4F0E
:1413900008950A921A928A939A93029FC001129F900D039FC8
:1413A400900D8C01999189911990099008958BD07A929AD017
:1413B80051F177249DD019F48C019D0124C00A921A92089FCC
:1413CC00B02CA12C289F902C812C189FA00C911C871C099FD9
:1413E000A00C911C871C199F900C811C0A9F900C811C389F53
:1413F400800C299F800C1A9F800C0B9F800C199009900B2D10
:141408001A2D292D382D799066C00E94FF0AE990F990089555
:14141C000E94FF0A0E947B0B08950E94FF0A0E947B0B69917F
:14143000799108957A936A935A934A93FA92EA92DA92CA925D
:14144400BA92AA9208950E94D70A0895499159916991799187
:1414580008950E94D70ABA92AA920895A990B99049915991F5
:14146C006991799108955A934A93DA92CA92BA92AA92089514
:141480000E94FF0A4991599108950E94D70ADA92CA92BA92B5
:14149400AA9208950E94FF0A499159916991799108950A92BF
:1414A800D8950A923196D895F02DE9910990099400951095EC
:1414BC00209530950F5F1F4F2F4F3F4F08950E94940BEA935F
:1414D0000E94DC0A89859A85AB85BC8508950E94E10AE9913E
:1414E4000E94850B24960895EE27E02BE12BE22BE32B089587
:1414F800EE27E82BE92BEA2BEB2B0895809174008F70806D6B
:14150C008093740008952090740027FEFCCF80917100887F0A
:1415200008950A921A922A923A924A925A926A927A928A925E
:141534009A920A931A932A933A938A939A93AA93BA93EA9352
:14154800FA930FB60A920895809174008F70846A809374000B
:14155C00089530E000910501109106010E944F092AE030E07B
:141570000E944D0988E091E0F801E80FF91F208022BA809101
:141584006500089500000000000000000895C22EA02E23973C
:14159800EB84FC844D8500C000C04A83F982E8822C2D0A2DBC
:1415AC0008957A936A935A934A9308958A939A93AA93BA9349
:1415C0000895B991A9919991899108952C803D804E805F80FF
:1415D40080901D0190901E0160901B0170901C010895862F1B
:1415E8008150A81619F4CC24C39403C04F5F5F4FCC240C2DC4
:1415FC000895A990B990C990D9900895809174008E7F8093B8
:1416100074000895889A909805E010E0089560E070E05A927D
:141624004A923A922A928A019B010895599049903990299046
:14163800089583EC92E0E0911901FF27E80FF91F0083089540
:14164C000C2D11270A0D1B1D0895F801EA56FF4F8081E65966
:14166000F0400895AA92BA925801809174008F7008952990EE
:141674002FBEF991E991999189910895FF27E80FF91F0081DA
:141688000895809307010A9BFECF0895E22E602F4A855B8539
:14169C00CC84AA2408958A939A93EA93FA932FB62A920895ED
:1416B0002090C1013090C20132140895FF4FE081FF27E00F8A
:1416C400F11F08952224F801EA56FF4F2082089500C000C0D9
:1416D800E88296010A2D0895809119018F5F80931901089546
:1416EC0026143704480459040895E990F990499159910895CC
:14170000288439844A845B840895B990A990999089900895C1
:14171400809362008091610008958FEC8DBD8CE28CBD089524
:141728008A929A92AA92BA92089583B3827083BB8823089592
:14173C00F801E956FF4F80810895A901602FC884AA24089585
:00000001FF
